{
  "contractName": "CSDC",
  "abi": [
    {
      "inputs": [],
      "stateMutability": "nonpayable",
      "type": "constructor"
    },
    {
      "anonymous": false,
      "inputs": [
        {
          "indexed": true,
          "internalType": "address",
          "name": "owner",
          "type": "address"
        },
        {
          "indexed": true,
          "internalType": "address",
          "name": "spender",
          "type": "address"
        },
        {
          "indexed": false,
          "internalType": "uint256",
          "name": "value",
          "type": "uint256"
        }
      ],
      "name": "Approval",
      "type": "event"
    },
    {
      "anonymous": false,
      "inputs": [
        {
          "indexed": false,
          "internalType": "address",
          "name": "account",
          "type": "address"
        }
      ],
      "name": "Paused",
      "type": "event"
    },
    {
      "anonymous": false,
      "inputs": [
        {
          "indexed": true,
          "internalType": "bytes32",
          "name": "role",
          "type": "bytes32"
        },
        {
          "indexed": true,
          "internalType": "bytes32",
          "name": "previousAdminRole",
          "type": "bytes32"
        },
        {
          "indexed": true,
          "internalType": "bytes32",
          "name": "newAdminRole",
          "type": "bytes32"
        }
      ],
      "name": "RoleAdminChanged",
      "type": "event"
    },
    {
      "anonymous": false,
      "inputs": [
        {
          "indexed": true,
          "internalType": "bytes32",
          "name": "role",
          "type": "bytes32"
        },
        {
          "indexed": true,
          "internalType": "address",
          "name": "account",
          "type": "address"
        },
        {
          "indexed": true,
          "internalType": "address",
          "name": "sender",
          "type": "address"
        }
      ],
      "name": "RoleGranted",
      "type": "event"
    },
    {
      "anonymous": false,
      "inputs": [
        {
          "indexed": true,
          "internalType": "bytes32",
          "name": "role",
          "type": "bytes32"
        },
        {
          "indexed": true,
          "internalType": "address",
          "name": "account",
          "type": "address"
        },
        {
          "indexed": true,
          "internalType": "address",
          "name": "sender",
          "type": "address"
        }
      ],
      "name": "RoleRevoked",
      "type": "event"
    },
    {
      "anonymous": false,
      "inputs": [
        {
          "indexed": true,
          "internalType": "address",
          "name": "from",
          "type": "address"
        },
        {
          "indexed": true,
          "internalType": "address",
          "name": "to",
          "type": "address"
        },
        {
          "indexed": false,
          "internalType": "uint256",
          "name": "value",
          "type": "uint256"
        }
      ],
      "name": "Transfer",
      "type": "event"
    },
    {
      "anonymous": false,
      "inputs": [
        {
          "indexed": false,
          "internalType": "address",
          "name": "account",
          "type": "address"
        }
      ],
      "name": "Unpaused",
      "type": "event"
    },
    {
      "inputs": [],
      "name": "DEFAULT_ADMIN_ROLE",
      "outputs": [
        {
          "internalType": "bytes32",
          "name": "",
          "type": "bytes32"
        }
      ],
      "stateMutability": "view",
      "type": "function"
    },
    {
      "inputs": [],
      "name": "MINTER_ROLE",
      "outputs": [
        {
          "internalType": "bytes32",
          "name": "",
          "type": "bytes32"
        }
      ],
      "stateMutability": "view",
      "type": "function"
    },
    {
      "inputs": [],
      "name": "PAUSER_ROLE",
      "outputs": [
        {
          "internalType": "bytes32",
          "name": "",
          "type": "bytes32"
        }
      ],
      "stateMutability": "view",
      "type": "function"
    },
    {
      "inputs": [
        {
          "internalType": "address",
          "name": "owner",
          "type": "address"
        },
        {
          "internalType": "address",
          "name": "spender",
          "type": "address"
        }
      ],
      "name": "allowance",
      "outputs": [
        {
          "internalType": "uint256",
          "name": "",
          "type": "uint256"
        }
      ],
      "stateMutability": "view",
      "type": "function"
    },
    {
      "inputs": [
        {
          "internalType": "address",
          "name": "spender",
          "type": "address"
        },
        {
          "internalType": "uint256",
          "name": "amount",
          "type": "uint256"
        }
      ],
      "name": "approve",
      "outputs": [
        {
          "internalType": "bool",
          "name": "",
          "type": "bool"
        }
      ],
      "stateMutability": "nonpayable",
      "type": "function"
    },
    {
      "inputs": [
        {
          "internalType": "address",
          "name": "account",
          "type": "address"
        }
      ],
      "name": "balanceOf",
      "outputs": [
        {
          "internalType": "uint256",
          "name": "",
          "type": "uint256"
        }
      ],
      "stateMutability": "view",
      "type": "function"
    },
    {
      "inputs": [
        {
          "internalType": "uint256",
          "name": "amount",
          "type": "uint256"
        }
      ],
      "name": "burn",
      "outputs": [],
      "stateMutability": "nonpayable",
      "type": "function"
    },
    {
      "inputs": [
        {
          "internalType": "address",
          "name": "account",
          "type": "address"
        },
        {
          "internalType": "uint256",
          "name": "amount",
          "type": "uint256"
        }
      ],
      "name": "burnFrom",
      "outputs": [],
      "stateMutability": "nonpayable",
      "type": "function"
    },
    {
      "inputs": [],
      "name": "decimals",
      "outputs": [
        {
          "internalType": "uint8",
          "name": "",
          "type": "uint8"
        }
      ],
      "stateMutability": "view",
      "type": "function"
    },
    {
      "inputs": [
        {
          "internalType": "address",
          "name": "spender",
          "type": "address"
        },
        {
          "internalType": "uint256",
          "name": "subtractedValue",
          "type": "uint256"
        }
      ],
      "name": "decreaseAllowance",
      "outputs": [
        {
          "internalType": "bool",
          "name": "",
          "type": "bool"
        }
      ],
      "stateMutability": "nonpayable",
      "type": "function"
    },
    {
      "inputs": [
        {
          "internalType": "bytes32",
          "name": "role",
          "type": "bytes32"
        }
      ],
      "name": "getRoleAdmin",
      "outputs": [
        {
          "internalType": "bytes32",
          "name": "",
          "type": "bytes32"
        }
      ],
      "stateMutability": "view",
      "type": "function"
    },
    {
      "inputs": [
        {
          "internalType": "bytes32",
          "name": "role",
          "type": "bytes32"
        },
        {
          "internalType": "address",
          "name": "account",
          "type": "address"
        }
      ],
      "name": "grantRole",
      "outputs": [],
      "stateMutability": "nonpayable",
      "type": "function"
    },
    {
      "inputs": [
        {
          "internalType": "bytes32",
          "name": "role",
          "type": "bytes32"
        },
        {
          "internalType": "address",
          "name": "account",
          "type": "address"
        }
      ],
      "name": "hasRole",
      "outputs": [
        {
          "internalType": "bool",
          "name": "",
          "type": "bool"
        }
      ],
      "stateMutability": "view",
      "type": "function"
    },
    {
      "inputs": [
        {
          "internalType": "address",
          "name": "spender",
          "type": "address"
        },
        {
          "internalType": "uint256",
          "name": "addedValue",
          "type": "uint256"
        }
      ],
      "name": "increaseAllowance",
      "outputs": [
        {
          "internalType": "bool",
          "name": "",
          "type": "bool"
        }
      ],
      "stateMutability": "nonpayable",
      "type": "function"
    },
    {
      "inputs": [],
      "name": "name",
      "outputs": [
        {
          "internalType": "string",
          "name": "",
          "type": "string"
        }
      ],
      "stateMutability": "view",
      "type": "function"
    },
    {
      "inputs": [],
      "name": "paused",
      "outputs": [
        {
          "internalType": "bool",
          "name": "",
          "type": "bool"
        }
      ],
      "stateMutability": "view",
      "type": "function"
    },
    {
      "inputs": [
        {
          "internalType": "bytes32",
          "name": "role",
          "type": "bytes32"
        },
        {
          "internalType": "address",
          "name": "account",
          "type": "address"
        }
      ],
      "name": "renounceRole",
      "outputs": [],
      "stateMutability": "nonpayable",
      "type": "function"
    },
    {
      "inputs": [
        {
          "internalType": "bytes32",
          "name": "role",
          "type": "bytes32"
        },
        {
          "internalType": "address",
          "name": "account",
          "type": "address"
        }
      ],
      "name": "revokeRole",
      "outputs": [],
      "stateMutability": "nonpayable",
      "type": "function"
    },
    {
      "inputs": [
        {
          "internalType": "bytes4",
          "name": "interfaceId",
          "type": "bytes4"
        }
      ],
      "name": "supportsInterface",
      "outputs": [
        {
          "internalType": "bool",
          "name": "",
          "type": "bool"
        }
      ],
      "stateMutability": "view",
      "type": "function"
    },
    {
      "inputs": [],
      "name": "symbol",
      "outputs": [
        {
          "internalType": "string",
          "name": "",
          "type": "string"
        }
      ],
      "stateMutability": "view",
      "type": "function"
    },
    {
      "inputs": [],
      "name": "totalSupply",
      "outputs": [
        {
          "internalType": "uint256",
          "name": "",
          "type": "uint256"
        }
      ],
      "stateMutability": "view",
      "type": "function"
    },
    {
      "inputs": [
        {
          "internalType": "address",
          "name": "recipient",
          "type": "address"
        },
        {
          "internalType": "uint256",
          "name": "amount",
          "type": "uint256"
        }
      ],
      "name": "transfer",
      "outputs": [
        {
          "internalType": "bool",
          "name": "",
          "type": "bool"
        }
      ],
      "stateMutability": "nonpayable",
      "type": "function"
    },
    {
      "inputs": [
        {
          "internalType": "address",
          "name": "sender",
          "type": "address"
        },
        {
          "internalType": "address",
          "name": "recipient",
          "type": "address"
        },
        {
          "internalType": "uint256",
          "name": "amount",
          "type": "uint256"
        }
      ],
      "name": "transferFrom",
      "outputs": [
        {
          "internalType": "bool",
          "name": "",
          "type": "bool"
        }
      ],
      "stateMutability": "nonpayable",
      "type": "function"
    },
    {
      "inputs": [],
      "name": "pause",
      "outputs": [],
      "stateMutability": "nonpayable",
      "type": "function"
    },
    {
      "inputs": [],
      "name": "unpause",
      "outputs": [],
      "stateMutability": "nonpayable",
      "type": "function"
    },
    {
      "inputs": [
        {
          "internalType": "address",
          "name": "to",
          "type": "address"
        },
        {
          "internalType": "uint256",
          "name": "amount",
          "type": "uint256"
        }
      ],
      "name": "mint",
      "outputs": [],
      "stateMutability": "nonpayable",
      "type": "function"
    }
  ],
  "bytecode": "0x60806040523480156200001157600080fd5b506040518060400160405280601081526020017f436f6e666564657261637920436f696e000000000000000000000000000000008152506040518060400160405280600481526020017f43534443000000000000000000000000000000000000000000000000000000008152508160039080519060200190620000969291906200050a565b508060049080519060200190620000af9291906200050a565b5050506000600560006101000a81548160ff021916908315150217905550620000e26000801b336200019560201b60201c565b620001147f65d7a28e3265b37a6474929f336521b332c1681b933f6cb9f3376673440d862a336200019560201b60201c565b620001467f9f2df0fed2c77648de5860a4cc508cd0818c85b8b8a1ab4ceeef8d981c8956a6336200019560201b60201c565b62000156620001ab60201b60201c565b600a62000164919062000743565b636553f10062000175919062000880565b6007819055506200018f33600754620001b460201b60201c565b620009eb565b620001a782826200031960201b60201c565b5050565b60006012905090565b600073ffffffffffffffffffffffffffffffffffffffff168273ffffffffffffffffffffffffffffffffffffffff16141562000227576040517f08c379a00000000000000000000000000000000000000000000000000000000081526004016200021e906200063b565b60405180910390fd5b6200023b600083836200040b60201b60201c565b80600260008282546200024f91906200068b565b92505081905550806000808473ffffffffffffffffffffffffffffffffffffffff1673ffffffffffffffffffffffffffffffffffffffff1681526020019081526020016000206000828254620002a691906200068b565b925050819055508173ffffffffffffffffffffffffffffffffffffffff16600073ffffffffffffffffffffffffffffffffffffffff167fddf252ad1be2c89b69c2b068fc378daa952ba7f163c4a11628f55a4df523b3ef836040516200030d91906200065d565b60405180910390a35050565b6200032b82826200047b60201b60201c565b620004075760016006600084815260200190815260200160002060000160008373ffffffffffffffffffffffffffffffffffffffff1673ffffffffffffffffffffffffffffffffffffffff16815260200190815260200160002060006101000a81548160ff021916908315150217905550620003ac620004e660201b60201c565b73ffffffffffffffffffffffffffffffffffffffff168173ffffffffffffffffffffffffffffffffffffffff16837f2f8788117e7eff1d82e926ec794901d17c78024a50270940304540a733656f0d60405160405180910390a45b5050565b6200041b620004ee60201b60201c565b156200045e576040517f08c379a0000000000000000000000000000000000000000000000000000000008152600401620004559062000619565b60405180910390fd5b620004768383836200050560201b62000d951760201c565b505050565b60006006600084815260200190815260200160002060000160008373ffffffffffffffffffffffffffffffffffffffff1673ffffffffffffffffffffffffffffffffffffffff16815260200190815260200160002060009054906101000a900460ff16905092915050565b600033905090565b6000600560009054906101000a900460ff16905090565b505050565b8280546200051890620008f8565b90600052602060002090601f0160209004810192826200053c576000855562000588565b82601f106200055757805160ff191683800117855562000588565b8280016001018555821562000588579182015b82811115620005875782518255916020019190600101906200056a565b5b5090506200059791906200059b565b5090565b5b80821115620005b65760008160009055506001016200059c565b5090565b6000620005c96010836200067a565b9150620005d68262000999565b602082019050919050565b6000620005f0601f836200067a565b9150620005fd82620009c2565b602082019050919050565b6200061381620008e1565b82525050565b600060208201905081810360008301526200063481620005ba565b9050919050565b600060208201905081810360008301526200065681620005e1565b9050919050565b600060208201905062000674600083018462000608565b92915050565b600082825260208201905092915050565b60006200069882620008e1565b9150620006a583620008e1565b9250827fffffffffffffffffffffffffffffffffffffffffffffffffffffffffffffffff03821115620006dd57620006dc6200092e565b5b828201905092915050565b6000808291508390505b60018511156200073a578086048111156200071257620007116200092e565b5b6001851615620007225780820291505b808102905062000732856200098c565b9450620006f2565b94509492505050565b60006200075082620008e1565b91506200075d83620008eb565b92506200078c7fffffffffffffffffffffffffffffffffffffffffffffffffffffffffffffffff848462000794565b905092915050565b600082620007a6576001905062000879565b81620007b6576000905062000879565b8160018114620007cf5760028114620007da5762000810565b600191505062000879565b60ff841115620007ef57620007ee6200092e565b5b8360020a9150848211156200080957620008086200092e565b5b5062000879565b5060208310610133831016604e8410600b84101617156200084a5782820a9050838111156200084457620008436200092e565b5b62000879565b620008598484846001620006e8565b925090508184048111156200087357620008726200092e565b5b81810290505b9392505050565b60006200088d82620008e1565b91506200089a83620008e1565b9250817fffffffffffffffffffffffffffffffffffffffffffffffffffffffffffffffff0483118215151615620008d657620008d56200092e565b5b828202905092915050565b6000819050919050565b600060ff82169050919050565b600060028204905060018216806200091157607f821691505b602082108114156200092857620009276200095d565b5b50919050565b7f4e487b7100000000000000000000000000000000000000000000000000000000600052601160045260246000fd5b7f4e487b7100000000000000000000000000000000000000000000000000000000600052602260045260246000fd5b60008160011c9050919050565b7f5061757361626c653a2070617573656400000000000000000000000000000000600082015250565b7f45524332303a206d696e7420746f20746865207a65726f206164647265737300600082015250565b612b8180620009fb6000396000f3fe608060405234801561001057600080fd5b506004361061018e5760003560e01c80635c975abb116100de578063a217fddf11610097578063d539139311610071578063d539139314610497578063d547741f146104b5578063dd62ed3e146104d1578063e63ab1e9146105015761018e565b8063a217fddf14610419578063a457c2d714610437578063a9059cbb146104675761018e565b80635c975abb1461035757806370a082311461037557806379cc6790146103a55780638456cb59146103c157806391d14854146103cb57806395d89b41146103fb5761018e565b80632f2ff15d1161014b578063395093511161012557806339509351146102e55780633f4ba83a1461031557806340c10f191461031f57806342966c681461033b5761018e565b80632f2ff15d1461028f578063313ce567146102ab57806336568abe146102c95761018e565b806301ffc9a71461019357806306fdde03146101c3578063095ea7b3146101e157806318160ddd1461021157806323b872dd1461022f578063248a9ca31461025f575b600080fd5b6101ad60048036038101906101a89190611d78565b61051f565b6040516101ba919061212f565b60405180910390f35b6101cb610599565b6040516101d89190612165565b60405180910390f35b6101fb60048036038101906101f69190611ccb565b61062b565b604051610208919061212f565b60405180910390f35b610219610649565b6040516102269190612367565b60405180910390f35b61024960048036038101906102449190611c78565b610653565b604051610256919061212f565b60405180910390f35b61027960048036038101906102749190611d0b565b610754565b604051610286919061214a565b60405180910390f35b6102a960048036038101906102a49190611d38565b610774565b005b6102b361079d565b6040516102c09190612382565b60405180910390f35b6102e360048036038101906102de9190611d38565b6107a6565b005b6102ff60048036038101906102fa9190611ccb565b610829565b60405161030c919061212f565b60405180910390f35b61031d6108d5565b005b61033960048036038101906103349190611ccb565b610912565b005b61035560048036038101906103509190611da5565b610953565b005b61035f610967565b60405161036c919061212f565b60405180910390f35b61038f600480360381019061038a9190611c0b565b61097e565b60405161039c9190612367565b60405180910390f35b6103bf60048036038101906103ba9190611ccb565b6109c6565b005b6103c9610a4a565b005b6103e560048036038101906103e09190611d38565b610a87565b6040516103f2919061212f565b60405180910390f35b610403610af2565b6040516104109190612165565b60405180910390f35b610421610b84565b60405161042e919061214a565b60405180910390f35b610451600480360381019061044c9190611ccb565b610b8b565b60405161045e919061212f565b60405180910390f35b610481600480360381019061047c9190611ccb565b610c7f565b60405161048e919061212f565b60405180910390f35b61049f610c9d565b6040516104ac919061214a565b60405180910390f35b6104cf60048036038101906104ca9190611d38565b610cc1565b005b6104eb60048036038101906104e69190611c38565b610cea565b6040516104f89190612367565b60405180910390f35b610509610d71565b604051610516919061214a565b60405180910390f35b60007f7965db0b000000000000000000000000000000000000000000000000000000007bffffffffffffffffffffffffffffffffffffffffffffffffffffffff1916827bffffffffffffffffffffffffffffffffffffffffffffffffffffffff19161480610592575061059182610d9a565b5b9050919050565b6060600380546105a890612590565b80601f01602080910402602001604051908101604052809291908181526020018280546105d490612590565b80156106215780601f106105f657610100808354040283529160200191610621565b820191906000526020600020905b81548152906001019060200180831161060457829003601f168201915b5050505050905090565b600061063f610638610e04565b8484610e0c565b6001905092915050565b6000600254905090565b6000610660848484610fd7565b6000600160008673ffffffffffffffffffffffffffffffffffffffff1673ffffffffffffffffffffffffffffffffffffffff16815260200190815260200160002060006106ab610e04565b73ffffffffffffffffffffffffffffffffffffffff1673ffffffffffffffffffffffffffffffffffffffff1681526020019081526020016000205490508281101561072b576040517f08c379a000000000000000000000000000000000000000000000000000000000815260040161072290612267565b60405180910390fd5b61074885610737610e04565b85846107439190612474565b610e0c565b60019150509392505050565b600060066000838152602001908152602001600020600101549050919050565b61077d82610754565b61078e81610789610e04565b611256565b61079883836112f3565b505050565b60006012905090565b6107ae610e04565b73ffffffffffffffffffffffffffffffffffffffff168173ffffffffffffffffffffffffffffffffffffffff161461081b576040517f08c379a000000000000000000000000000000000000000000000000000000000815260040161081290612327565b60405180910390fd5b61082582826113d4565b5050565b60006108cb610836610e04565b848460016000610844610e04565b73ffffffffffffffffffffffffffffffffffffffff1673ffffffffffffffffffffffffffffffffffffffff16815260200190815260200160002060008873ffffffffffffffffffffffffffffffffffffffff1673ffffffffffffffffffffffffffffffffffffffff168152602001908152602001600020546108c691906123c4565b610e0c565b6001905092915050565b6108ff7f65d7a28e3265b37a6474929f336521b332c1681b933f6cb9f3376673440d862a33610a87565b61090857600080fd5b6109106114b6565b565b61093c7f9f2df0fed2c77648de5860a4cc508cd0818c85b8b8a1ab4ceeef8d981c8956a633610a87565b61094557600080fd5b61094f8282611558565b5050565b61096461095e610e04565b826116ac565b50565b6000600560009054906101000a900460ff16905090565b60008060008373ffffffffffffffffffffffffffffffffffffffff1673ffffffffffffffffffffffffffffffffffffffff168152602001908152602001600020549050919050565b60006109d9836109d4610e04565b610cea565b905081811015610a1e576040517f08c379a0000000000000000000000000000000000000000000000000000000008152600401610a1590612287565b60405180910390fd5b610a3b83610a2a610e04565b8484610a369190612474565b610e0c565b610a4583836116ac565b505050565b610a747f65d7a28e3265b37a6474929f336521b332c1681b933f6cb9f3376673440d862a33610a87565b610a7d57600080fd5b610a85611880565b565b60006006600084815260200190815260200160002060000160008373ffffffffffffffffffffffffffffffffffffffff1673ffffffffffffffffffffffffffffffffffffffff16815260200190815260200160002060009054906101000a900460ff16905092915050565b606060048054610b0190612590565b80601f0160208091040260200160405190810160405280929190818152602001828054610b2d90612590565b8015610b7a5780601f10610b4f57610100808354040283529160200191610b7a565b820191906000526020600020905b815481529060010190602001808311610b5d57829003601f168201915b5050505050905090565b6000801b81565b60008060016000610b9a610e04565b73ffffffffffffffffffffffffffffffffffffffff1673ffffffffffffffffffffffffffffffffffffffff16815260200190815260200160002060008573ffffffffffffffffffffffffffffffffffffffff1673ffffffffffffffffffffffffffffffffffffffff16815260200190815260200160002054905082811015610c57576040517f08c379a0000000000000000000000000000000000000000000000000000000008152600401610c4e90612307565b60405180910390fd5b610c74610c62610e04565b858584610c6f9190612474565b610e0c565b600191505092915050565b6000610c93610c8c610e04565b8484610fd7565b6001905092915050565b7f9f2df0fed2c77648de5860a4cc508cd0818c85b8b8a1ab4ceeef8d981c8956a681565b610cca82610754565b610cdb81610cd6610e04565b611256565b610ce583836113d4565b505050565b6000600160008473ffffffffffffffffffffffffffffffffffffffff1673ffffffffffffffffffffffffffffffffffffffff16815260200190815260200160002060008373ffffffffffffffffffffffffffffffffffffffff1673ffffffffffffffffffffffffffffffffffffffff16815260200190815260200160002054905092915050565b7f65d7a28e3265b37a6474929f336521b332c1681b933f6cb9f3376673440d862a81565b505050565b60007f01ffc9a7000000000000000000000000000000000000000000000000000000007bffffffffffffffffffffffffffffffffffffffffffffffffffffffff1916827bffffffffffffffffffffffffffffffffffffffffffffffffffffffff1916149050919050565b600033905090565b600073ffffffffffffffffffffffffffffffffffffffff168373ffffffffffffffffffffffffffffffffffffffff161415610e7c576040517f08c379a0000000000000000000000000000000000000000000000000000000008152600401610e73906122e7565b60405180910390fd5b600073ffffffffffffffffffffffffffffffffffffffff168273ffffffffffffffffffffffffffffffffffffffff161415610eec576040517f08c379a0000000000000000000000000000000000000000000000000000000008152600401610ee390612207565b60405180910390fd5b80600160008573ffffffffffffffffffffffffffffffffffffffff1673ffffffffffffffffffffffffffffffffffffffff16815260200190815260200160002060008473ffffffffffffffffffffffffffffffffffffffff1673ffffffffffffffffffffffffffffffffffffffff168152602001908152602001600020819055508173ffffffffffffffffffffffffffffffffffffffff168373ffffffffffffffffffffffffffffffffffffffff167f8c5be1e5ebec7d5bd14f71427d1e84f3dd0314c0f7b2291e5b200ac8c7c3b92583604051610fca9190612367565b60405180910390a3505050565b600073ffffffffffffffffffffffffffffffffffffffff168373ffffffffffffffffffffffffffffffffffffffff161415611047576040517f08c379a000000000000000000000000000000000000000000000000000000000815260040161103e906122c7565b60405180910390fd5b600073ffffffffffffffffffffffffffffffffffffffff168273ffffffffffffffffffffffffffffffffffffffff1614156110b7576040517f08c379a00000000000000000000000000000000000000000000000000000000081526004016110ae906121a7565b60405180910390fd5b6110c2838383611923565b60008060008573ffffffffffffffffffffffffffffffffffffffff1673ffffffffffffffffffffffffffffffffffffffff16815260200190815260200160002054905081811015611148576040517f08c379a000000000000000000000000000000000000000000000000000000000815260040161113f90612227565b60405180910390fd5b81816111549190612474565b6000808673ffffffffffffffffffffffffffffffffffffffff1673ffffffffffffffffffffffffffffffffffffffff16815260200190815260200160002081905550816000808573ffffffffffffffffffffffffffffffffffffffff1673ffffffffffffffffffffffffffffffffffffffff16815260200190815260200160002060008282546111e491906123c4565b925050819055508273ffffffffffffffffffffffffffffffffffffffff168473ffffffffffffffffffffffffffffffffffffffff167fddf252ad1be2c89b69c2b068fc378daa952ba7f163c4a11628f55a4df523b3ef846040516112489190612367565b60405180910390a350505050565b6112608282610a87565b6112ef576112858173ffffffffffffffffffffffffffffffffffffffff16601461197b565b6112938360001c602061197b565b6040516020016112a49291906120da565b6040516020818303038152906040526040517f08c379a00000000000000000000000000000000000000000000000000000000081526004016112e69190612165565b60405180910390fd5b5050565b6112fd8282610a87565b6113d05760016006600084815260200190815260200160002060000160008373ffffffffffffffffffffffffffffffffffffffff1673ffffffffffffffffffffffffffffffffffffffff16815260200190815260200160002060006101000a81548160ff021916908315150217905550611375610e04565b73ffffffffffffffffffffffffffffffffffffffff168173ffffffffffffffffffffffffffffffffffffffff16837f2f8788117e7eff1d82e926ec794901d17c78024a50270940304540a733656f0d60405160405180910390a45b5050565b6113de8282610a87565b156114b25760006006600084815260200190815260200160002060000160008373ffffffffffffffffffffffffffffffffffffffff1673ffffffffffffffffffffffffffffffffffffffff16815260200190815260200160002060006101000a81548160ff021916908315150217905550611457610e04565b73ffffffffffffffffffffffffffffffffffffffff168173ffffffffffffffffffffffffffffffffffffffff16837ff6391f5c32d9c69d2a47ea670b442974b53935d1edc7fd64eb21e047a839171b60405160405180910390a45b5050565b6114be610967565b6114fd576040517f08c379a00000000000000000000000000000000000000000000000000000000081526004016114f4906121c7565b60405180910390fd5b6000600560006101000a81548160ff0219169083151502179055507f5db9ee0a495bf2e6ff9c91a7834c1ba4fdd244a5e8aa4e537bd38aeae4b073aa611541610e04565b60405161154e9190612114565b60405180910390a1565b600073ffffffffffffffffffffffffffffffffffffffff168273ffffffffffffffffffffffffffffffffffffffff1614156115c8576040517f08c379a00000000000000000000000000000000000000000000000000000000081526004016115bf90612347565b60405180910390fd5b6115d460008383611923565b80600260008282546115e691906123c4565b92505081905550806000808473ffffffffffffffffffffffffffffffffffffffff1673ffffffffffffffffffffffffffffffffffffffff168152602001908152602001600020600082825461163b91906123c4565b925050819055508173ffffffffffffffffffffffffffffffffffffffff16600073ffffffffffffffffffffffffffffffffffffffff167fddf252ad1be2c89b69c2b068fc378daa952ba7f163c4a11628f55a4df523b3ef836040516116a09190612367565b60405180910390a35050565b600073ffffffffffffffffffffffffffffffffffffffff168273ffffffffffffffffffffffffffffffffffffffff16141561171c576040517f08c379a0000000000000000000000000000000000000000000000000000000008152600401611713906122a7565b60405180910390fd5b61172882600083611923565b60008060008473ffffffffffffffffffffffffffffffffffffffff1673ffffffffffffffffffffffffffffffffffffffff168152602001908152602001600020549050818110156117ae576040517f08c379a00000000000000000000000000000000000000000000000000000000081526004016117a5906121e7565b60405180910390fd5b81816117ba9190612474565b6000808573ffffffffffffffffffffffffffffffffffffffff1673ffffffffffffffffffffffffffffffffffffffff16815260200190815260200160002081905550816002600082825461180e9190612474565b92505081905550600073ffffffffffffffffffffffffffffffffffffffff168373ffffffffffffffffffffffffffffffffffffffff167fddf252ad1be2c89b69c2b068fc378daa952ba7f163c4a11628f55a4df523b3ef846040516118739190612367565b60405180910390a3505050565b611888610967565b156118c8576040517f08c379a00000000000000000000000000000000000000000000000000000000081526004016118bf90612247565b60405180910390fd5b6001600560006101000a81548160ff0219169083151502179055507f62e78cea01bee320cd4e420270b5ea74000d11b0c9f74754ebdbfc544b05a25861190c610e04565b6040516119199190612114565b60405180910390a1565b61192b610967565b1561196b576040517f08c379a000000000000000000000000000000000000000000000000000000000815260040161196290612247565b60405180910390fd5b611976838383610d95565b505050565b60606000600283600261198e919061241a565b61199891906123c4565b67ffffffffffffffff8111156119b1576119b061264f565b5b6040519080825280601f01601f1916602001820160405280156119e35781602001600182028036833780820191505090505b5090507f300000000000000000000000000000000000000000000000000000000000000081600081518110611a1b57611a1a612620565b5b60200101907effffffffffffffffffffffffffffffffffffffffffffffffffffffffffffff1916908160001a9053507f780000000000000000000000000000000000000000000000000000000000000081600181518110611a7f57611a7e612620565b5b60200101907effffffffffffffffffffffffffffffffffffffffffffffffffffffffffffff1916908160001a90535060006001846002611abf919061241a565b611ac991906123c4565b90505b6001811115611b69577f3031323334353637383961626364656600000000000000000000000000000000600f861660108110611b0b57611b0a612620565b5b1a60f81b828281518110611b2257611b21612620565b5b60200101907effffffffffffffffffffffffffffffffffffffffffffffffffffffffffffff1916908160001a905350600485901c945080611b6290612566565b9050611acc565b5060008414611bad576040517f08c379a0000000000000000000000000000000000000000000000000000000008152600401611ba490612187565b60405180910390fd5b8091505092915050565b600081359050611bc681612aef565b92915050565b600081359050611bdb81612b06565b92915050565b600081359050611bf081612b1d565b92915050565b600081359050611c0581612b34565b92915050565b600060208284031215611c2157611c2061267e565b5b6000611c2f84828501611bb7565b91505092915050565b60008060408385031215611c4f57611c4e61267e565b5b6000611c5d85828601611bb7565b9250506020611c6e85828601611bb7565b9150509250929050565b600080600060608486031215611c9157611c9061267e565b5b6000611c9f86828701611bb7565b9350506020611cb086828701611bb7565b9250506040611cc186828701611bf6565b9150509250925092565b60008060408385031215611ce257611ce161267e565b5b6000611cf085828601611bb7565b9250506020611d0185828601611bf6565b9150509250929050565b600060208284031215611d2157611d2061267e565b5b6000611d2f84828501611bcc565b91505092915050565b60008060408385031215611d4f57611d4e61267e565b5b6000611d5d85828601611bcc565b9250506020611d6e85828601611bb7565b9150509250929050565b600060208284031215611d8e57611d8d61267e565b5b6000611d9c84828501611be1565b91505092915050565b600060208284031215611dbb57611dba61267e565b5b6000611dc984828501611bf6565b91505092915050565b611ddb816124a8565b82525050565b611dea816124ba565b82525050565b611df9816124c6565b82525050565b6000611e0a8261239d565b611e1481856123a8565b9350611e24818560208601612533565b611e2d81612683565b840191505092915050565b6000611e438261239d565b611e4d81856123b9565b9350611e5d818560208601612533565b80840191505092915050565b6000611e766020836123a8565b9150611e8182612694565b602082019050919050565b6000611e996023836123a8565b9150611ea4826126bd565b604082019050919050565b6000611ebc6014836123a8565b9150611ec78261270c565b602082019050919050565b6000611edf6022836123a8565b9150611eea82612735565b604082019050919050565b6000611f026022836123a8565b9150611f0d82612784565b604082019050919050565b6000611f256026836123a8565b9150611f30826127d3565b604082019050919050565b6000611f486010836123a8565b9150611f5382612822565b602082019050919050565b6000611f6b6028836123a8565b9150611f768261284b565b604082019050919050565b6000611f8e6024836123a8565b9150611f998261289a565b604082019050919050565b6000611fb16021836123a8565b9150611fbc826128e9565b604082019050919050565b6000611fd46025836123a8565b9150611fdf82612938565b604082019050919050565b6000611ff76024836123a8565b915061200282612987565b604082019050919050565b600061201a6017836123b9565b9150612025826129d6565b601782019050919050565b600061203d6025836123a8565b9150612048826129ff565b604082019050919050565b60006120606011836123b9565b915061206b82612a4e565b601182019050919050565b6000612083602f836123a8565b915061208e82612a77565b604082019050919050565b60006120a6601f836123a8565b91506120b182612ac6565b602082019050919050565b6120c58161251c565b82525050565b6120d481612526565b82525050565b60006120e58261200d565b91506120f18285611e38565b91506120fc82612053565b91506121088284611e38565b91508190509392505050565b60006020820190506121296000830184611dd2565b92915050565b60006020820190506121446000830184611de1565b92915050565b600060208201905061215f6000830184611df0565b92915050565b6000602082019050818103600083015261217f8184611dff565b905092915050565b600060208201905081810360008301526121a081611e69565b9050919050565b600060208201905081810360008301526121c081611e8c565b9050919050565b600060208201905081810360008301526121e081611eaf565b9050919050565b6000602082019050818103600083015261220081611ed2565b9050919050565b6000602082019050818103600083015261222081611ef5565b9050919050565b6000602082019050818103600083015261224081611f18565b9050919050565b6000602082019050818103600083015261226081611f3b565b9050919050565b6000602082019050818103600083015261228081611f5e565b9050919050565b600060208201905081810360008301526122a081611f81565b9050919050565b600060208201905081810360008301526122c081611fa4565b9050919050565b600060208201905081810360008301526122e081611fc7565b9050919050565b6000602082019050818103600083015261230081611fea565b9050919050565b6000602082019050818103600083015261232081612030565b9050919050565b6000602082019050818103600083015261234081612076565b9050919050565b6000602082019050818103600083015261236081612099565b9050919050565b600060208201905061237c60008301846120bc565b92915050565b600060208201905061239760008301846120cb565b92915050565b600081519050919050565b600082825260208201905092915050565b600081905092915050565b60006123cf8261251c565b91506123da8361251c565b9250827fffffffffffffffffffffffffffffffffffffffffffffffffffffffffffffffff0382111561240f5761240e6125c2565b5b828201905092915050565b60006124258261251c565b91506124308361251c565b9250817fffffffffffffffffffffffffffffffffffffffffffffffffffffffffffffffff0483118215151615612469576124686125c2565b5b828202905092915050565b600061247f8261251c565b915061248a8361251c565b92508282101561249d5761249c6125c2565b5b828203905092915050565b60006124b3826124fc565b9050919050565b60008115159050919050565b6000819050919050565b60007fffffffff0000000000000000000000000000000000000000000000000000000082169050919050565b600073ffffffffffffffffffffffffffffffffffffffff82169050919050565b6000819050919050565b600060ff82169050919050565b60005b83811015612551578082015181840152602081019050612536565b83811115612560576000848401525b50505050565b60006125718261251c565b91506000821415612585576125846125c2565b5b600182039050919050565b600060028204905060018216806125a857607f821691505b602082108114156125bc576125bb6125f1565b5b50919050565b7f4e487b7100000000000000000000000000000000000000000000000000000000600052601160045260246000fd5b7f4e487b7100000000000000000000000000000000000000000000000000000000600052602260045260246000fd5b7f4e487b7100000000000000000000000000000000000000000000000000000000600052603260045260246000fd5b7f4e487b7100000000000000000000000000000000000000000000000000000000600052604160045260246000fd5b600080fd5b6000601f19601f8301169050919050565b7f537472696e67733a20686578206c656e67746820696e73756666696369656e74600082015250565b7f45524332303a207472616e7366657220746f20746865207a65726f206164647260008201527f6573730000000000000000000000000000000000000000000000000000000000602082015250565b7f5061757361626c653a206e6f7420706175736564000000000000000000000000600082015250565b7f45524332303a206275726e20616d6f756e7420657863656564732062616c616e60008201527f6365000000000000000000000000000000000000000000000000000000000000602082015250565b7f45524332303a20617070726f766520746f20746865207a65726f20616464726560008201527f7373000000000000000000000000000000000000000000000000000000000000602082015250565b7f45524332303a207472616e7366657220616d6f756e742065786365656473206260008201527f616c616e63650000000000000000000000000000000000000000000000000000602082015250565b7f5061757361626c653a2070617573656400000000000000000000000000000000600082015250565b7f45524332303a207472616e7366657220616d6f756e742065786365656473206160008201527f6c6c6f77616e6365000000000000000000000000000000000000000000000000602082015250565b7f45524332303a206275726e20616d6f756e74206578636565647320616c6c6f7760008201527f616e636500000000000000000000000000000000000000000000000000000000602082015250565b7f45524332303a206275726e2066726f6d20746865207a65726f2061646472657360008201527f7300000000000000000000000000000000000000000000000000000000000000602082015250565b7f45524332303a207472616e736665722066726f6d20746865207a65726f20616460008201527f6472657373000000000000000000000000000000000000000000000000000000602082015250565b7f45524332303a20617070726f76652066726f6d20746865207a65726f2061646460008201527f7265737300000000000000000000000000000000000000000000000000000000602082015250565b7f416363657373436f6e74726f6c3a206163636f756e7420000000000000000000600082015250565b7f45524332303a2064656372656173656420616c6c6f77616e63652062656c6f7760008201527f207a65726f000000000000000000000000000000000000000000000000000000602082015250565b7f206973206d697373696e6720726f6c6520000000000000000000000000000000600082015250565b7f416363657373436f6e74726f6c3a2063616e206f6e6c792072656e6f756e636560008201527f20726f6c657320666f722073656c660000000000000000000000000000000000602082015250565b7f45524332303a206d696e7420746f20746865207a65726f206164647265737300600082015250565b612af8816124a8565b8114612b0357600080fd5b50565b612b0f816124c6565b8114612b1a57600080fd5b50565b612b26816124d0565b8114612b3157600080fd5b50565b612b3d8161251c565b8114612b4857600080fd5b5056fea26469706673582212206501990f99d75cba76fc227627291458a88f3f8c3b16497047647c0fa5e8be7664736f6c63430008050033",
  "immutableReferences": {},
  "source": "// SPDX-License-Identifier: MIT\npragma solidity ^0.8.0;\n\nimport \"@openzeppelin/contracts/token/ERC20/ERC20.sol\";\nimport \"@openzeppelin/contracts/token/ERC20/extensions/ERC20Burnable.sol\";\nimport \"@openzeppelin/contracts/security/Pausable.sol\";\nimport \"@openzeppelin/contracts/access/AccessControl.sol\";\n\ncontract CSDC is ERC20, ERC20Burnable, Pausable, AccessControl {\n    bytes32 public constant PAUSER_ROLE = keccak256(\"PAUSER_ROLE\");\n    bytes32 public constant MINTER_ROLE = keccak256(\"MINTER_ROLE\");\n    uint256 private _totalSupply;\n    \n    constructor() ERC20(\"Confederacy Coin\", \"CSDC\") {\n        _setupRole(DEFAULT_ADMIN_ROLE, msg.sender);\n        _setupRole(PAUSER_ROLE, msg.sender);\n        _setupRole(MINTER_ROLE, msg.sender);\n        _totalSupply = 1700000000 * 10 ** decimals();\n        _mint(msg.sender, _totalSupply);\n    }     \n\n    function pause() public {\n        require(hasRole(PAUSER_ROLE, msg.sender));\n        _pause();\n    }\n\n    function unpause() public {\n        require(hasRole(PAUSER_ROLE, msg.sender));\n        _unpause();\n    }\n\n    function mint(address to, uint256 amount) public {\n        require(hasRole(MINTER_ROLE, msg.sender));\n        _mint(to, amount);\n    }\n\n    function _beforeTokenTransfer(address from, address to, uint256 amount)\n        internal\n        whenNotPaused\n        override\n    {\n        super._beforeTokenTransfer(from, to, amount);\n    }\n}\n",
  "sourcePath": "/Users/rmcmahan/blockchain/ipfs-drive/contracts/CSDC.sol",
  "compiler": {
    "name": "solc",
    "version": "0.8.5+commit.a4f2e591.Emscripten.clang"
  },
  "schemaVersion": "3.4.1",
  "updatedAt": "2021-06-14T16:17:58.622Z",
  "devdoc": {
    "kind": "dev",
    "methods": {
      "allowance(address,address)": {
        "details": "See {IERC20-allowance}."
      },
      "approve(address,uint256)": {
        "details": "See {IERC20-approve}. Requirements: - `spender` cannot be the zero address."
      },
      "balanceOf(address)": {
        "details": "See {IERC20-balanceOf}."
      },
      "burn(uint256)": {
        "details": "Destroys `amount` tokens from the caller. See {ERC20-_burn}."
      },
      "burnFrom(address,uint256)": {
        "details": "Destroys `amount` tokens from `account`, deducting from the caller's allowance. See {ERC20-_burn} and {ERC20-allowance}. Requirements: - the caller must have allowance for ``accounts``'s tokens of at least `amount`."
      },
      "decimals()": {
        "details": "Returns the number of decimals used to get its user representation. For example, if `decimals` equals `2`, a balance of `505` tokens should be displayed to a user as `5,05` (`505 / 10 ** 2`). Tokens usually opt for a value of 18, imitating the relationship between Ether and Wei. This is the value {ERC20} uses, unless this function is overridden; NOTE: This information is only used for _display_ purposes: it in no way affects any of the arithmetic of the contract, including {IERC20-balanceOf} and {IERC20-transfer}."
      },
      "decreaseAllowance(address,uint256)": {
        "details": "Atomically decreases the allowance granted to `spender` by the caller. This is an alternative to {approve} that can be used as a mitigation for problems described in {IERC20-approve}. Emits an {Approval} event indicating the updated allowance. Requirements: - `spender` cannot be the zero address. - `spender` must have allowance for the caller of at least `subtractedValue`."
      },
      "getRoleAdmin(bytes32)": {
        "details": "Returns the admin role that controls `role`. See {grantRole} and {revokeRole}. To change a role's admin, use {_setRoleAdmin}."
      },
      "grantRole(bytes32,address)": {
        "details": "Grants `role` to `account`. If `account` had not been already granted `role`, emits a {RoleGranted} event. Requirements: - the caller must have ``role``'s admin role."
      },
      "hasRole(bytes32,address)": {
        "details": "Returns `true` if `account` has been granted `role`."
      },
      "increaseAllowance(address,uint256)": {
        "details": "Atomically increases the allowance granted to `spender` by the caller. This is an alternative to {approve} that can be used as a mitigation for problems described in {IERC20-approve}. Emits an {Approval} event indicating the updated allowance. Requirements: - `spender` cannot be the zero address."
      },
      "name()": {
        "details": "Returns the name of the token."
      },
      "paused()": {
        "details": "Returns true if the contract is paused, and false otherwise."
      },
      "renounceRole(bytes32,address)": {
        "details": "Revokes `role` from the calling account. Roles are often managed via {grantRole} and {revokeRole}: this function's purpose is to provide a mechanism for accounts to lose their privileges if they are compromised (such as when a trusted device is misplaced). If the calling account had been granted `role`, emits a {RoleRevoked} event. Requirements: - the caller must be `account`."
      },
      "revokeRole(bytes32,address)": {
        "details": "Revokes `role` from `account`. If `account` had been granted `role`, emits a {RoleRevoked} event. Requirements: - the caller must have ``role``'s admin role."
      },
      "supportsInterface(bytes4)": {
        "details": "See {IERC165-supportsInterface}."
      },
      "symbol()": {
        "details": "Returns the symbol of the token, usually a shorter version of the name."
      },
      "totalSupply()": {
        "details": "See {IERC20-totalSupply}."
      },
      "transfer(address,uint256)": {
        "details": "See {IERC20-transfer}. Requirements: - `recipient` cannot be the zero address. - the caller must have a balance of at least `amount`."
      },
      "transferFrom(address,address,uint256)": {
        "details": "See {IERC20-transferFrom}. Emits an {Approval} event indicating the updated allowance. This is not required by the EIP. See the note at the beginning of {ERC20}. Requirements: - `sender` and `recipient` cannot be the zero address. - `sender` must have a balance of at least `amount`. - the caller must have allowance for ``sender``'s tokens of at least `amount`."
      }
    },
    "version": 1
  },
  "userdoc": {
    "kind": "user",
    "methods": {},
    "version": 1
  }
}