{
  "contractName": "CSDCTreasury",
  "abi": [
    {
      "inputs": [
        {
          "internalType": "contract CSDC",
          "name": "_tokenContract",
          "type": "address"
        }
      ],
      "stateMutability": "nonpayable",
      "type": "constructor"
    },
    {
      "inputs": [],
      "name": "gasFee",
      "outputs": [
        {
          "internalType": "uint256",
          "name": "",
          "type": "uint256"
        }
      ],
      "stateMutability": "view",
      "type": "function"
    },
    {
      "inputs": [],
      "name": "tokenContract",
      "outputs": [
        {
          "internalType": "contract CSDC",
          "name": "",
          "type": "address"
        }
      ],
      "stateMutability": "view",
      "type": "function"
    },
    {
      "inputs": [],
      "name": "treasuryAddress",
      "outputs": [
        {
          "internalType": "address",
          "name": "",
          "type": "address"
        }
      ],
      "stateMutability": "view",
      "type": "function"
    },
    {
      "inputs": [],
      "name": "reserveAirdrop",
      "outputs": [],
      "stateMutability": "payable",
      "type": "function"
    },
    {
      "inputs": [
        {
          "internalType": "uint256",
          "name": "_gasFee",
          "type": "uint256"
        }
      ],
      "name": "setGasFee",
      "outputs": [],
      "stateMutability": "nonpayable",
      "type": "function"
    }
  ],
  "bytecode": "0x608060405234801561001057600080fd5b506040516104f73803806104f78339818101604052810190610032919061011d565b30600160006101000a81548173ffffffffffffffffffffffffffffffffffffffff021916908373ffffffffffffffffffffffffffffffffffffffff160217905550336000806101000a81548173ffffffffffffffffffffffffffffffffffffffff021916908373ffffffffffffffffffffffffffffffffffffffff16021790555080600260006101000a81548173ffffffffffffffffffffffffffffffffffffffff021916908373ffffffffffffffffffffffffffffffffffffffff16021790555066470de4df820000600381905550506101aa565b60008151905061011781610193565b92915050565b6000602082840312156101335761013261018e565b5b600061014184828501610108565b91505092915050565b60006101558261016e565b9050919050565b60006101678261014a565b9050919050565b600073ffffffffffffffffffffffffffffffffffffffff82169050919050565b600080fd5b61019c8161015c565b81146101a757600080fd5b50565b61033e806101b96000396000f3fe60806040526004361061004a5760003560e01c806355a373d61461004f578063658612e91461007a578063678edca3146100a5578063968d523e146100ce578063c5f956af146100d8575b600080fd5b34801561005b57600080fd5b50610064610103565b6040516100719190610256565b60405180910390f35b34801561008657600080fd5b5061008f610129565b60405161009c9190610271565b60405180910390f35b3480156100b157600080fd5b506100cc60048036038101906100c791906101e1565b61012f565b005b6100d6610132565b005b3480156100e457600080fd5b506100ed6101a6565b6040516100fa919061023b565b60405180910390f35b600260009054906101000a900473ffffffffffffffffffffffffffffffffffffffff1681565b60035481565b50565b60035434101561014157600080fd5b6004339080600181540180825580915050600190039060005260206000200160009091909190916101000a81548173ffffffffffffffffffffffffffffffffffffffff021916908373ffffffffffffffffffffffffffffffffffffffff160217905550565b600160009054906101000a900473ffffffffffffffffffffffffffffffffffffffff1681565b6000813590506101db816102f1565b92915050565b6000602082840312156101f7576101f66102ec565b5b6000610205848285016101cc565b91505092915050565b6102178161028c565b82525050565b610226816102c8565b82525050565b610235816102be565b82525050565b6000602082019050610250600083018461020e565b92915050565b600060208201905061026b600083018461021d565b92915050565b6000602082019050610286600083018461022c565b92915050565b60006102978261029e565b9050919050565b600073ffffffffffffffffffffffffffffffffffffffff82169050919050565b6000819050919050565b60006102d3826102da565b9050919050565b60006102e58261029e565b9050919050565b600080fd5b6102fa816102be565b811461030557600080fd5b5056fea26469706673582212205980fa717803b241fc059127d4a38bbd9e2f2fd671c33b199723884c638b9dec64736f6c63430008050033",
  "immutableReferences": {},
  "source": "pragma solidity ^0.8.0;\n\nimport \"./CSDC.sol\";\nimport \"@openzeppelin/contracts/security/Pausable.sol\";\n\ncontract CSDCTreasury {\n  address admin;\n  address public treasuryAddress;\n  CSDC public tokenContract;\n  uint256 public gasFee;\n  address[] reservations;\n  \n  constructor(CSDC _tokenContract) {\n    treasuryAddress = address(this);\n    admin = msg.sender;\n    tokenContract = _tokenContract;\n    gasFee = 20000000000000000;\n  }\n  \n  function reserveAirdrop() public payable {\n    require(msg.value >= gasFee);\n    reservations.push(msg.sender);\n  }\n  \n  function sendAirdrop() private {\n\n  }\n  \n  function setGasFee(uint256 _gasFee) public {\n\n  }\n  \n  \n}",
  "sourcePath": "/Users/rmcmahan/blockchain/ipfs-drive/contracts/CSDCTreasury.sol",
  "compiler": {
    "name": "solc",
    "version": "0.8.5+commit.a4f2e591.Emscripten.clang"
  },
  "schemaVersion": "3.4.1",
  "updatedAt": "2021-06-15T21:42:12.385Z",
  "devdoc": {
    "kind": "dev",
    "methods": {},
    "version": 1
  },
  "userdoc": {
    "kind": "user",
    "methods": {},
    "version": 1
  }
}