{
  "contractName": "UniqueNFT",
  "abi": [
    {
      "inputs": [],
      "stateMutability": "nonpayable",
      "type": "constructor"
    },
    {
      "anonymous": false,
      "inputs": [
        {
          "indexed": true,
          "internalType": "address",
          "name": "owner",
          "type": "address"
        },
        {
          "indexed": true,
          "internalType": "address",
          "name": "approved",
          "type": "address"
        },
        {
          "indexed": true,
          "internalType": "uint256",
          "name": "tokenId",
          "type": "uint256"
        }
      ],
      "name": "Approval",
      "type": "event"
    },
    {
      "anonymous": false,
      "inputs": [
        {
          "indexed": true,
          "internalType": "address",
          "name": "owner",
          "type": "address"
        },
        {
          "indexed": true,
          "internalType": "address",
          "name": "operator",
          "type": "address"
        },
        {
          "indexed": false,
          "internalType": "bool",
          "name": "approved",
          "type": "bool"
        }
      ],
      "name": "ApprovalForAll",
      "type": "event"
    },
    {
      "anonymous": false,
      "inputs": [
        {
          "indexed": true,
          "internalType": "address",
          "name": "previousOwner",
          "type": "address"
        },
        {
          "indexed": true,
          "internalType": "address",
          "name": "newOwner",
          "type": "address"
        }
      ],
      "name": "OwnershipTransferred",
      "type": "event"
    },
    {
      "anonymous": false,
      "inputs": [
        {
          "indexed": false,
          "internalType": "address",
          "name": "account",
          "type": "address"
        }
      ],
      "name": "Paused",
      "type": "event"
    },
    {
      "anonymous": false,
      "inputs": [
        {
          "indexed": true,
          "internalType": "address",
          "name": "from",
          "type": "address"
        },
        {
          "indexed": true,
          "internalType": "address",
          "name": "to",
          "type": "address"
        },
        {
          "indexed": true,
          "internalType": "uint256",
          "name": "tokenId",
          "type": "uint256"
        }
      ],
      "name": "Transfer",
      "type": "event"
    },
    {
      "anonymous": false,
      "inputs": [
        {
          "indexed": false,
          "internalType": "address",
          "name": "account",
          "type": "address"
        }
      ],
      "name": "Unpaused",
      "type": "event"
    },
    {
      "inputs": [
        {
          "internalType": "address",
          "name": "to",
          "type": "address"
        },
        {
          "internalType": "uint256",
          "name": "tokenId",
          "type": "uint256"
        }
      ],
      "name": "approve",
      "outputs": [],
      "stateMutability": "nonpayable",
      "type": "function"
    },
    {
      "inputs": [
        {
          "internalType": "address",
          "name": "owner",
          "type": "address"
        }
      ],
      "name": "balanceOf",
      "outputs": [
        {
          "internalType": "uint256",
          "name": "",
          "type": "uint256"
        }
      ],
      "stateMutability": "view",
      "type": "function"
    },
    {
      "inputs": [
        {
          "internalType": "uint256",
          "name": "tokenId",
          "type": "uint256"
        }
      ],
      "name": "burn",
      "outputs": [],
      "stateMutability": "nonpayable",
      "type": "function"
    },
    {
      "inputs": [
        {
          "internalType": "uint256",
          "name": "tokenId",
          "type": "uint256"
        }
      ],
      "name": "getApproved",
      "outputs": [
        {
          "internalType": "address",
          "name": "",
          "type": "address"
        }
      ],
      "stateMutability": "view",
      "type": "function"
    },
    {
      "inputs": [
        {
          "internalType": "address",
          "name": "owner",
          "type": "address"
        },
        {
          "internalType": "address",
          "name": "operator",
          "type": "address"
        }
      ],
      "name": "isApprovedForAll",
      "outputs": [
        {
          "internalType": "bool",
          "name": "",
          "type": "bool"
        }
      ],
      "stateMutability": "view",
      "type": "function"
    },
    {
      "inputs": [],
      "name": "name",
      "outputs": [
        {
          "internalType": "string",
          "name": "",
          "type": "string"
        }
      ],
      "stateMutability": "view",
      "type": "function"
    },
    {
      "inputs": [],
      "name": "owner",
      "outputs": [
        {
          "internalType": "address",
          "name": "",
          "type": "address"
        }
      ],
      "stateMutability": "view",
      "type": "function"
    },
    {
      "inputs": [
        {
          "internalType": "uint256",
          "name": "tokenId",
          "type": "uint256"
        }
      ],
      "name": "ownerOf",
      "outputs": [
        {
          "internalType": "address",
          "name": "",
          "type": "address"
        }
      ],
      "stateMutability": "view",
      "type": "function"
    },
    {
      "inputs": [],
      "name": "paused",
      "outputs": [
        {
          "internalType": "bool",
          "name": "",
          "type": "bool"
        }
      ],
      "stateMutability": "view",
      "type": "function"
    },
    {
      "inputs": [],
      "name": "renounceOwnership",
      "outputs": [],
      "stateMutability": "nonpayable",
      "type": "function"
    },
    {
      "inputs": [
        {
          "internalType": "address",
          "name": "from",
          "type": "address"
        },
        {
          "internalType": "address",
          "name": "to",
          "type": "address"
        },
        {
          "internalType": "uint256",
          "name": "tokenId",
          "type": "uint256"
        }
      ],
      "name": "safeTransferFrom",
      "outputs": [],
      "stateMutability": "nonpayable",
      "type": "function"
    },
    {
      "inputs": [
        {
          "internalType": "address",
          "name": "from",
          "type": "address"
        },
        {
          "internalType": "address",
          "name": "to",
          "type": "address"
        },
        {
          "internalType": "uint256",
          "name": "tokenId",
          "type": "uint256"
        },
        {
          "internalType": "bytes",
          "name": "_data",
          "type": "bytes"
        }
      ],
      "name": "safeTransferFrom",
      "outputs": [],
      "stateMutability": "nonpayable",
      "type": "function"
    },
    {
      "inputs": [
        {
          "internalType": "address",
          "name": "operator",
          "type": "address"
        },
        {
          "internalType": "bool",
          "name": "approved",
          "type": "bool"
        }
      ],
      "name": "setApprovalForAll",
      "outputs": [],
      "stateMutability": "nonpayable",
      "type": "function"
    },
    {
      "inputs": [],
      "name": "symbol",
      "outputs": [
        {
          "internalType": "string",
          "name": "",
          "type": "string"
        }
      ],
      "stateMutability": "view",
      "type": "function"
    },
    {
      "inputs": [
        {
          "internalType": "uint256",
          "name": "index",
          "type": "uint256"
        }
      ],
      "name": "tokenByIndex",
      "outputs": [
        {
          "internalType": "uint256",
          "name": "",
          "type": "uint256"
        }
      ],
      "stateMutability": "view",
      "type": "function"
    },
    {
      "inputs": [
        {
          "internalType": "address",
          "name": "owner",
          "type": "address"
        },
        {
          "internalType": "uint256",
          "name": "index",
          "type": "uint256"
        }
      ],
      "name": "tokenOfOwnerByIndex",
      "outputs": [
        {
          "internalType": "uint256",
          "name": "",
          "type": "uint256"
        }
      ],
      "stateMutability": "view",
      "type": "function"
    },
    {
      "inputs": [],
      "name": "totalSupply",
      "outputs": [
        {
          "internalType": "uint256",
          "name": "",
          "type": "uint256"
        }
      ],
      "stateMutability": "view",
      "type": "function"
    },
    {
      "inputs": [
        {
          "internalType": "address",
          "name": "from",
          "type": "address"
        },
        {
          "internalType": "address",
          "name": "to",
          "type": "address"
        },
        {
          "internalType": "uint256",
          "name": "tokenId",
          "type": "uint256"
        }
      ],
      "name": "transferFrom",
      "outputs": [],
      "stateMutability": "nonpayable",
      "type": "function"
    },
    {
      "inputs": [
        {
          "internalType": "address",
          "name": "newOwner",
          "type": "address"
        }
      ],
      "name": "transferOwnership",
      "outputs": [],
      "stateMutability": "nonpayable",
      "type": "function"
    },
    {
      "inputs": [
        {
          "internalType": "address",
          "name": "to",
          "type": "address"
        }
      ],
      "name": "safeMint",
      "outputs": [],
      "stateMutability": "nonpayable",
      "type": "function"
    },
    {
      "inputs": [],
      "name": "pause",
      "outputs": [],
      "stateMutability": "nonpayable",
      "type": "function"
    },
    {
      "inputs": [],
      "name": "unpause",
      "outputs": [],
      "stateMutability": "nonpayable",
      "type": "function"
    },
    {
      "inputs": [
        {
          "internalType": "uint256",
          "name": "tokenId",
          "type": "uint256"
        }
      ],
      "name": "tokenURI",
      "outputs": [
        {
          "internalType": "string",
          "name": "",
          "type": "string"
        }
      ],
      "stateMutability": "view",
      "type": "function"
    },
    {
      "inputs": [
        {
          "internalType": "bytes4",
          "name": "interfaceId",
          "type": "bytes4"
        }
      ],
      "name": "supportsInterface",
      "outputs": [
        {
          "internalType": "bool",
          "name": "",
          "type": "bool"
        }
      ],
      "stateMutability": "view",
      "type": "function"
    }
  ],
  "bytecode": "0x60806040523480156200001157600080fd5b506040518060400160405280600981526020017f556e697175654e465400000000000000000000000000000000000000000000008152506040518060400160405280600481526020017f554e4654000000000000000000000000000000000000000000000000000000008152508160009080519060200190620000969291906200018c565b508060019080519060200190620000af9291906200018c565b5050506000600b60006101000a81548160ff0219169083151502179055506000620000df6200018460201b60201c565b905080600b60016101000a81548173ffffffffffffffffffffffffffffffffffffffff021916908373ffffffffffffffffffffffffffffffffffffffff1602179055508073ffffffffffffffffffffffffffffffffffffffff16600073ffffffffffffffffffffffffffffffffffffffff167f8be0079c531659141344cd1fd0a4f28419497f9722a3daafe3b4186f6b6457e060405160405180910390a350620002a1565b600033905090565b8280546200019a906200023c565b90600052602060002090601f016020900481019282620001be57600085556200020a565b82601f10620001d957805160ff19168380011785556200020a565b828001600101855582156200020a579182015b8281111562000209578251825591602001919060010190620001ec565b5b5090506200021991906200021d565b5090565b5b80821115620002385760008160009055506001016200021e565b5090565b600060028204905060018216806200025557607f821691505b602082108114156200026c576200026b62000272565b5b50919050565b7f4e487b7100000000000000000000000000000000000000000000000000000000600052602260045260246000fd5b613d1880620002b16000396000f3fe608060405234801561001057600080fd5b50600436106101585760003560e01c80635c975abb116100c357806395d89b411161007c57806395d89b411461039f578063a22cb465146103bd578063b88d4fde146103d9578063c87b56dd146103f5578063e985e9c514610425578063f2fde38b1461045557610158565b80635c975abb146102ef5780636352211e1461030d57806370a082311461033d578063715018a61461036d5780638456cb59146103775780638da5cb5b1461038157610158565b80632f745c59116101155780632f745c59146102315780633f4ba83a1461026157806340d097c31461026b57806342842e0e1461028757806342966c68146102a35780634f6ccce7146102bf57610158565b806301ffc9a71461015d57806306fdde031461018d578063081812fc146101ab578063095ea7b3146101db57806318160ddd146101f757806323b872dd14610215575b600080fd5b61017760048036038101906101729190612afc565b610471565b6040516101849190612fd4565b60405180910390f35b610195610483565b6040516101a29190612fef565b60405180910390f35b6101c560048036038101906101c09190612b4e565b610515565b6040516101d29190612f6d565b60405180910390f35b6101f560048036038101906101f09190612ac0565b61059a565b005b6101ff6106b2565b60405161020c91906132d1565b60405180910390f35b61022f600480360381019061022a91906129ba565b6106bf565b005b61024b60048036038101906102469190612ac0565b61071f565b60405161025891906132d1565b60405180910390f35b6102696107c4565b005b61028560048036038101906102809190612955565b61084a565b005b6102a1600480360381019061029c91906129ba565b6108e6565b005b6102bd60048036038101906102b89190612b4e565b610906565b005b6102d960048036038101906102d49190612b4e565b610962565b6040516102e691906132d1565b60405180910390f35b6102f76109f9565b6040516103049190612fd4565b60405180910390f35b61032760048036038101906103229190612b4e565b610a10565b6040516103349190612f6d565b60405180910390f35b61035760048036038101906103529190612955565b610ac2565b60405161036491906132d1565b60405180910390f35b610375610b7a565b005b61037f610cb7565b005b610389610d3d565b6040516103969190612f6d565b60405180910390f35b6103a7610d67565b6040516103b49190612fef565b60405180910390f35b6103d760048036038101906103d29190612a84565b610df9565b005b6103f360048036038101906103ee9190612a09565b610f7a565b005b61040f600480360381019061040a9190612b4e565b610fdc565b60405161041c9190612fef565b60405180910390f35b61043f600480360381019061043a919061297e565b610fee565b60405161044c9190612fd4565b60405180910390f35b61046f600480360381019061046a9190612955565b611082565b005b600061047c8261122e565b9050919050565b606060008054610492906134f6565b80601f01602080910402602001604051908101604052809291908181526020018280546104be906134f6565b801561050b5780601f106104e05761010080835404028352916020019161050b565b820191906000526020600020905b8154815290600101906020018083116104ee57829003601f168201915b5050505050905090565b6000610520826112a8565b61055f576040517f08c379a0000000000000000000000000000000000000000000000000000000008152600401610556906131d1565b60405180910390fd5b6004600083815260200190815260200160002060009054906101000a900473ffffffffffffffffffffffffffffffffffffffff169050919050565b60006105a582610a10565b90508073ffffffffffffffffffffffffffffffffffffffff168373ffffffffffffffffffffffffffffffffffffffff161415610616576040517f08c379a000000000000000000000000000000000000000000000000000000000815260040161060d90613251565b60405180910390fd5b8073ffffffffffffffffffffffffffffffffffffffff16610635611314565b73ffffffffffffffffffffffffffffffffffffffff16148061066457506106638161065e611314565b610fee565b5b6106a3576040517f08c379a000000000000000000000000000000000000000000000000000000000815260040161069a90613131565b60405180910390fd5b6106ad838361131c565b505050565b6000600880549050905090565b6106d06106ca611314565b826113d5565b61070f576040517f08c379a000000000000000000000000000000000000000000000000000000000815260040161070690613271565b60405180910390fd5b61071a8383836114b3565b505050565b600061072a83610ac2565b821061076b576040517f08c379a000000000000000000000000000000000000000000000000000000000815260040161076290613031565b60405180910390fd5b600660008473ffffffffffffffffffffffffffffffffffffffff1673ffffffffffffffffffffffffffffffffffffffff168152602001908152602001600020600083815260200190815260200160002054905092915050565b6107cc611314565b73ffffffffffffffffffffffffffffffffffffffff166107ea610d3d565b73ffffffffffffffffffffffffffffffffffffffff1614610840576040517f08c379a0000000000000000000000000000000000000000000000000000000008152600401610837906131f1565b60405180910390fd5b61084861170f565b565b610852611314565b73ffffffffffffffffffffffffffffffffffffffff16610870610d3d565b73ffffffffffffffffffffffffffffffffffffffff16146108c6576040517f08c379a00000000000000000000000000000000000000000000000000000000081526004016108bd906131f1565b60405180910390fd5b6108d9816108d4600c6117b1565b6117bf565b6108e3600c6117dd565b50565b61090183838360405180602001604052806000815250610f7a565b505050565b610917610911611314565b826113d5565b610956576040517f08c379a000000000000000000000000000000000000000000000000000000000815260040161094d906132b1565b60405180910390fd5b61095f816117f3565b50565b600061096c6106b2565b82106109ad576040517f08c379a00000000000000000000000000000000000000000000000000000000081526004016109a490613291565b60405180910390fd5b600882815481106109e7577f4e487b7100000000000000000000000000000000000000000000000000000000600052603260045260246000fd5b90600052602060002001549050919050565b6000600b60009054906101000a900460ff16905090565b6000806002600084815260200190815260200160002060009054906101000a900473ffffffffffffffffffffffffffffffffffffffff169050600073ffffffffffffffffffffffffffffffffffffffff168173ffffffffffffffffffffffffffffffffffffffff161415610ab9576040517f08c379a0000000000000000000000000000000000000000000000000000000008152600401610ab090613171565b60405180910390fd5b80915050919050565b60008073ffffffffffffffffffffffffffffffffffffffff168273ffffffffffffffffffffffffffffffffffffffff161415610b33576040517f08c379a0000000000000000000000000000000000000000000000000000000008152600401610b2a90613151565b60405180910390fd5b600360008373ffffffffffffffffffffffffffffffffffffffff1673ffffffffffffffffffffffffffffffffffffffff168152602001908152602001600020549050919050565b610b82611314565b73ffffffffffffffffffffffffffffffffffffffff16610ba0610d3d565b73ffffffffffffffffffffffffffffffffffffffff1614610bf6576040517f08c379a0000000000000000000000000000000000000000000000000000000008152600401610bed906131f1565b60405180910390fd5b600073ffffffffffffffffffffffffffffffffffffffff16600b60019054906101000a900473ffffffffffffffffffffffffffffffffffffffff1673ffffffffffffffffffffffffffffffffffffffff167f8be0079c531659141344cd1fd0a4f28419497f9722a3daafe3b4186f6b6457e060405160405180910390a36000600b60016101000a81548173ffffffffffffffffffffffffffffffffffffffff021916908373ffffffffffffffffffffffffffffffffffffffff160217905550565b610cbf611314565b73ffffffffffffffffffffffffffffffffffffffff16610cdd610d3d565b73ffffffffffffffffffffffffffffffffffffffff1614610d33576040517f08c379a0000000000000000000000000000000000000000000000000000000008152600401610d2a906131f1565b60405180910390fd5b610d3b6117ff565b565b6000600b60019054906101000a900473ffffffffffffffffffffffffffffffffffffffff16905090565b606060018054610d76906134f6565b80601f0160208091040260200160405190810160405280929190818152602001828054610da2906134f6565b8015610def5780601f10610dc457610100808354040283529160200191610def565b820191906000526020600020905b815481529060010190602001808311610dd257829003601f168201915b5050505050905090565b610e01611314565b73ffffffffffffffffffffffffffffffffffffffff168273ffffffffffffffffffffffffffffffffffffffff161415610e6f576040517f08c379a0000000000000000000000000000000000000000000000000000000008152600401610e66906130d1565b60405180910390fd5b8060056000610e7c611314565b73ffffffffffffffffffffffffffffffffffffffff1673ffffffffffffffffffffffffffffffffffffffff16815260200190815260200160002060008473ffffffffffffffffffffffffffffffffffffffff1673ffffffffffffffffffffffffffffffffffffffff16815260200190815260200160002060006101000a81548160ff0219169083151502179055508173ffffffffffffffffffffffffffffffffffffffff16610f29611314565b73ffffffffffffffffffffffffffffffffffffffff167f17307eab39ab6107e8899845ad3d59bd9653f200f220920489ca2b5937696c3183604051610f6e9190612fd4565b60405180910390a35050565b610f8b610f85611314565b836113d5565b610fca576040517f08c379a0000000000000000000000000000000000000000000000000000000008152600401610fc190613271565b60405180910390fd5b610fd6848484846118a2565b50505050565b6060610fe7826118fe565b9050919050565b6000600560008473ffffffffffffffffffffffffffffffffffffffff1673ffffffffffffffffffffffffffffffffffffffff16815260200190815260200160002060008373ffffffffffffffffffffffffffffffffffffffff1673ffffffffffffffffffffffffffffffffffffffff16815260200190815260200160002060009054906101000a900460ff16905092915050565b61108a611314565b73ffffffffffffffffffffffffffffffffffffffff166110a8610d3d565b73ffffffffffffffffffffffffffffffffffffffff16146110fe576040517f08c379a00000000000000000000000000000000000000000000000000000000081526004016110f5906131f1565b60405180910390fd5b600073ffffffffffffffffffffffffffffffffffffffff168173ffffffffffffffffffffffffffffffffffffffff16141561116e576040517f08c379a000000000000000000000000000000000000000000000000000000000815260040161116590613071565b60405180910390fd5b8073ffffffffffffffffffffffffffffffffffffffff16600b60019054906101000a900473ffffffffffffffffffffffffffffffffffffffff1673ffffffffffffffffffffffffffffffffffffffff167f8be0079c531659141344cd1fd0a4f28419497f9722a3daafe3b4186f6b6457e060405160405180910390a380600b60016101000a81548173ffffffffffffffffffffffffffffffffffffffff021916908373ffffffffffffffffffffffffffffffffffffffff16021790555050565b60007f780e9d63000000000000000000000000000000000000000000000000000000007bffffffffffffffffffffffffffffffffffffffffffffffffffffffff1916827bffffffffffffffffffffffffffffffffffffffffffffffffffffffff191614806112a157506112a082611a50565b5b9050919050565b60008073ffffffffffffffffffffffffffffffffffffffff166002600084815260200190815260200160002060009054906101000a900473ffffffffffffffffffffffffffffffffffffffff1673ffffffffffffffffffffffffffffffffffffffff1614159050919050565b600033905090565b816004600083815260200190815260200160002060006101000a81548173ffffffffffffffffffffffffffffffffffffffff021916908373ffffffffffffffffffffffffffffffffffffffff160217905550808273ffffffffffffffffffffffffffffffffffffffff1661138f83610a10565b73ffffffffffffffffffffffffffffffffffffffff167f8c5be1e5ebec7d5bd14f71427d1e84f3dd0314c0f7b2291e5b200ac8c7c3b92560405160405180910390a45050565b60006113e0826112a8565b61141f576040517f08c379a0000000000000000000000000000000000000000000000000000000008152600401611416906130f1565b60405180910390fd5b600061142a83610a10565b90508073ffffffffffffffffffffffffffffffffffffffff168473ffffffffffffffffffffffffffffffffffffffff16148061149957508373ffffffffffffffffffffffffffffffffffffffff1661148184610515565b73ffffffffffffffffffffffffffffffffffffffff16145b806114aa57506114a98185610fee565b5b91505092915050565b8273ffffffffffffffffffffffffffffffffffffffff166114d382610a10565b73ffffffffffffffffffffffffffffffffffffffff1614611529576040517f08c379a000000000000000000000000000000000000000000000000000000000815260040161152090613211565b60405180910390fd5b600073ffffffffffffffffffffffffffffffffffffffff168273ffffffffffffffffffffffffffffffffffffffff161415611599576040517f08c379a0000000000000000000000000000000000000000000000000000000008152600401611590906130b1565b60405180910390fd5b6115a4838383611b32565b6115af60008261131c565b6001600360008573ffffffffffffffffffffffffffffffffffffffff1673ffffffffffffffffffffffffffffffffffffffff16815260200190815260200160002060008282546115ff919061340c565b925050819055506001600360008473ffffffffffffffffffffffffffffffffffffffff1673ffffffffffffffffffffffffffffffffffffffff16815260200190815260200160002060008282546116569190613385565b92505081905550816002600083815260200190815260200160002060006101000a81548173ffffffffffffffffffffffffffffffffffffffff021916908373ffffffffffffffffffffffffffffffffffffffff160217905550808273ffffffffffffffffffffffffffffffffffffffff168473ffffffffffffffffffffffffffffffffffffffff167fddf252ad1be2c89b69c2b068fc378daa952ba7f163c4a11628f55a4df523b3ef60405160405180910390a4505050565b6117176109f9565b611756576040517f08c379a000000000000000000000000000000000000000000000000000000000815260040161174d90613011565b60405180910390fd5b6000600b60006101000a81548160ff0219169083151502179055507f5db9ee0a495bf2e6ff9c91a7834c1ba4fdd244a5e8aa4e537bd38aeae4b073aa61179a611314565b6040516117a79190612f6d565b60405180910390a1565b600081600001549050919050565b6117d9828260405180602001604052806000815250611b8a565b5050565b6001816000016000828254019250508190555050565b6117fc81611be5565b50565b6118076109f9565b15611847576040517f08c379a000000000000000000000000000000000000000000000000000000000815260040161183e90613111565b60405180910390fd5b6001600b60006101000a81548160ff0219169083151502179055507f62e78cea01bee320cd4e420270b5ea74000d11b0c9f74754ebdbfc544b05a25861188b611314565b6040516118989190612f6d565b60405180910390a1565b6118ad8484846114b3565b6118b984848484611c38565b6118f8576040517f08c379a00000000000000000000000000000000000000000000000000000000081526004016118ef90613051565b60405180910390fd5b50505050565b6060611909826112a8565b611948576040517f08c379a000000000000000000000000000000000000000000000000000000000815260040161193f906131b1565b60405180910390fd5b6000600a60008481526020019081526020016000208054611968906134f6565b80601f0160208091040260200160405190810160405280929190818152602001828054611994906134f6565b80156119e15780601f106119b6576101008083540402835291602001916119e1565b820191906000526020600020905b8154815290600101906020018083116119c457829003601f168201915b5050505050905060006119f2611dcf565b9050600081511415611a08578192505050611a4b565b600082511115611a3d578082604051602001611a25929190612f49565b60405160208183030381529060405292505050611a4b565b611a4684611de6565b925050505b919050565b60007f80ac58cd000000000000000000000000000000000000000000000000000000007bffffffffffffffffffffffffffffffffffffffffffffffffffffffff1916827bffffffffffffffffffffffffffffffffffffffffffffffffffffffff19161480611b1b57507f5b5e139f000000000000000000000000000000000000000000000000000000007bffffffffffffffffffffffffffffffffffffffffffffffffffffffff1916827bffffffffffffffffffffffffffffffffffffffffffffffffffffffff1916145b80611b2b5750611b2a82611e8d565b5b9050919050565b611b3a6109f9565b15611b7a576040517f08c379a0000000000000000000000000000000000000000000000000000000008152600401611b7190613111565b60405180910390fd5b611b85838383611ef7565b505050565b611b94838361200b565b611ba16000848484611c38565b611be0576040517f08c379a0000000000000000000000000000000000000000000000000000000008152600401611bd790613051565b60405180910390fd5b505050565b611bee816121d9565b6000600a60008381526020019081526020016000208054611c0e906134f6565b905014611c3557600a60008281526020019081526020016000206000611c349190612827565b5b50565b6000611c598473ffffffffffffffffffffffffffffffffffffffff166122ea565b15611dc2578373ffffffffffffffffffffffffffffffffffffffff1663150b7a02611c82611314565b8786866040518563ffffffff1660e01b8152600401611ca49493929190612f88565b602060405180830381600087803b158015611cbe57600080fd5b505af1925050508015611cef57506040513d601f19601f82011682018060405250810190611cec9190612b25565b60015b611d72573d8060008114611d1f576040519150601f19603f3d011682016040523d82523d6000602084013e611d24565b606091505b50600081511415611d6a576040517f08c379a0000000000000000000000000000000000000000000000000000000008152600401611d6190613051565b60405180910390fd5b805181602001fd5b63150b7a0260e01b7bffffffffffffffffffffffffffffffffffffffffffffffffffffffff1916817bffffffffffffffffffffffffffffffffffffffffffffffffffffffff191614915050611dc7565b600190505b949350505050565b606060405180602001604052806000815250905090565b6060611df1826112a8565b611e30576040517f08c379a0000000000000000000000000000000000000000000000000000000008152600401611e2790613231565b60405180910390fd5b6000611e3a611dcf565b90506000815111611e5a5760405180602001604052806000815250611e85565b80611e64846122fd565b604051602001611e75929190612f49565b6040516020818303038152906040525b915050919050565b60007f01ffc9a7000000000000000000000000000000000000000000000000000000007bffffffffffffffffffffffffffffffffffffffffffffffffffffffff1916827bffffffffffffffffffffffffffffffffffffffffffffffffffffffff1916149050919050565b611f028383836124aa565b600073ffffffffffffffffffffffffffffffffffffffff168373ffffffffffffffffffffffffffffffffffffffff161415611f4557611f40816124af565b611f84565b8173ffffffffffffffffffffffffffffffffffffffff168373ffffffffffffffffffffffffffffffffffffffff1614611f8357611f8283826124f8565b5b5b600073ffffffffffffffffffffffffffffffffffffffff168273ffffffffffffffffffffffffffffffffffffffff161415611fc757611fc281612665565b612006565b8273ffffffffffffffffffffffffffffffffffffffff168273ffffffffffffffffffffffffffffffffffffffff16146120055761200482826127a8565b5b5b505050565b600073ffffffffffffffffffffffffffffffffffffffff168273ffffffffffffffffffffffffffffffffffffffff16141561207b576040517f08c379a000000000000000000000000000000000000000000000000000000000815260040161207290613191565b60405180910390fd5b612084816112a8565b156120c4576040517f08c379a00000000000000000000000000000000000000000000000000000000081526004016120bb90613091565b60405180910390fd5b6120d060008383611b32565b6001600360008473ffffffffffffffffffffffffffffffffffffffff1673ffffffffffffffffffffffffffffffffffffffff16815260200190815260200160002060008282546121209190613385565b92505081905550816002600083815260200190815260200160002060006101000a81548173ffffffffffffffffffffffffffffffffffffffff021916908373ffffffffffffffffffffffffffffffffffffffff160217905550808273ffffffffffffffffffffffffffffffffffffffff16600073ffffffffffffffffffffffffffffffffffffffff167fddf252ad1be2c89b69c2b068fc378daa952ba7f163c4a11628f55a4df523b3ef60405160405180910390a45050565b60006121e482610a10565b90506121f281600084611b32565b6121fd60008361131c565b6001600360008373ffffffffffffffffffffffffffffffffffffffff1673ffffffffffffffffffffffffffffffffffffffff168152602001908152602001600020600082825461224d919061340c565b925050819055506002600083815260200190815260200160002060006101000a81549073ffffffffffffffffffffffffffffffffffffffff021916905581600073ffffffffffffffffffffffffffffffffffffffff168273ffffffffffffffffffffffffffffffffffffffff167fddf252ad1be2c89b69c2b068fc378daa952ba7f163c4a11628f55a4df523b3ef60405160405180910390a45050565b600080823b905060008111915050919050565b60606000821415612345576040518060400160405280600181526020017f300000000000000000000000000000000000000000000000000000000000000081525090506124a5565b600082905060005b6000821461237757808061236090613559565b915050600a8261237091906133db565b915061234d565b60008167ffffffffffffffff8111156123b9577f4e487b7100000000000000000000000000000000000000000000000000000000600052604160045260246000fd5b6040519080825280601f01601f1916602001820160405280156123eb5781602001600182028036833780820191505090505b5090505b6000851461249e57600182612404919061340c565b9150600a8561241391906135a2565b603061241f9190613385565b60f81b81838151811061245b577f4e487b7100000000000000000000000000000000000000000000000000000000600052603260045260246000fd5b60200101907effffffffffffffffffffffffffffffffffffffffffffffffffffffffffffff1916908160001a905350600a8561249791906133db565b94506123ef565b8093505050505b919050565b505050565b6008805490506009600083815260200190815260200160002081905550600881908060018154018082558091505060019003906000526020600020016000909190919091505550565b6000600161250584610ac2565b61250f919061340c565b90506000600760008481526020019081526020016000205490508181146125f4576000600660008673ffffffffffffffffffffffffffffffffffffffff1673ffffffffffffffffffffffffffffffffffffffff168152602001908152602001600020600084815260200190815260200160002054905080600660008773ffffffffffffffffffffffffffffffffffffffff1673ffffffffffffffffffffffffffffffffffffffff168152602001908152602001600020600084815260200190815260200160002081905550816007600083815260200190815260200160002081905550505b6007600084815260200190815260200160002060009055600660008573ffffffffffffffffffffffffffffffffffffffff1673ffffffffffffffffffffffffffffffffffffffff16815260200190815260200160002060008381526020019081526020016000206000905550505050565b60006001600880549050612679919061340c565b90506000600960008481526020019081526020016000205490506000600883815481106126cf577f4e487b7100000000000000000000000000000000000000000000000000000000600052603260045260246000fd5b906000526020600020015490508060088381548110612717577f4e487b7100000000000000000000000000000000000000000000000000000000600052603260045260246000fd5b90600052602060002001819055508160096000838152602001908152602001600020819055506009600085815260200190815260200160002060009055600880548061278c577f4e487b7100000000000000000000000000000000000000000000000000000000600052603160045260246000fd5b6001900381819060005260206000200160009055905550505050565b60006127b383610ac2565b905081600660008573ffffffffffffffffffffffffffffffffffffffff1673ffffffffffffffffffffffffffffffffffffffff168152602001908152602001600020600083815260200190815260200160002081905550806007600084815260200190815260200160002081905550505050565b508054612833906134f6565b6000825580601f106128455750612864565b601f0160209004906000526020600020908101906128639190612867565b5b50565b5b80821115612880576000816000905550600101612868565b5090565b600061289761289284613311565b6132ec565b9050828152602081018484840111156128af57600080fd5b6128ba8482856134b4565b509392505050565b6000813590506128d181613c86565b92915050565b6000813590506128e681613c9d565b92915050565b6000813590506128fb81613cb4565b92915050565b60008151905061291081613cb4565b92915050565b600082601f83011261292757600080fd5b8135612937848260208601612884565b91505092915050565b60008135905061294f81613ccb565b92915050565b60006020828403121561296757600080fd5b6000612975848285016128c2565b91505092915050565b6000806040838503121561299157600080fd5b600061299f858286016128c2565b92505060206129b0858286016128c2565b9150509250929050565b6000806000606084860312156129cf57600080fd5b60006129dd868287016128c2565b93505060206129ee868287016128c2565b92505060406129ff86828701612940565b9150509250925092565b60008060008060808587031215612a1f57600080fd5b6000612a2d878288016128c2565b9450506020612a3e878288016128c2565b9350506040612a4f87828801612940565b925050606085013567ffffffffffffffff811115612a6c57600080fd5b612a7887828801612916565b91505092959194509250565b60008060408385031215612a9757600080fd5b6000612aa5858286016128c2565b9250506020612ab6858286016128d7565b9150509250929050565b60008060408385031215612ad357600080fd5b6000612ae1858286016128c2565b9250506020612af285828601612940565b9150509250929050565b600060208284031215612b0e57600080fd5b6000612b1c848285016128ec565b91505092915050565b600060208284031215612b3757600080fd5b6000612b4584828501612901565b91505092915050565b600060208284031215612b6057600080fd5b6000612b6e84828501612940565b91505092915050565b612b8081613440565b82525050565b612b8f81613452565b82525050565b6000612ba082613342565b612baa8185613358565b9350612bba8185602086016134c3565b612bc38161368f565b840191505092915050565b6000612bd98261334d565b612be38185613369565b9350612bf38185602086016134c3565b612bfc8161368f565b840191505092915050565b6000612c128261334d565b612c1c818561337a565b9350612c2c8185602086016134c3565b80840191505092915050565b6000612c45601483613369565b9150612c50826136a0565b602082019050919050565b6000612c68602b83613369565b9150612c73826136c9565b604082019050919050565b6000612c8b603283613369565b9150612c9682613718565b604082019050919050565b6000612cae602683613369565b9150612cb982613767565b604082019050919050565b6000612cd1601c83613369565b9150612cdc826137b6565b602082019050919050565b6000612cf4602483613369565b9150612cff826137df565b604082019050919050565b6000612d17601983613369565b9150612d228261382e565b602082019050919050565b6000612d3a602c83613369565b9150612d4582613857565b604082019050919050565b6000612d5d601083613369565b9150612d68826138a6565b602082019050919050565b6000612d80603883613369565b9150612d8b826138cf565b604082019050919050565b6000612da3602a83613369565b9150612dae8261391e565b604082019050919050565b6000612dc6602983613369565b9150612dd18261396d565b604082019050919050565b6000612de9602083613369565b9150612df4826139bc565b602082019050919050565b6000612e0c603183613369565b9150612e17826139e5565b604082019050919050565b6000612e2f602c83613369565b9150612e3a82613a34565b604082019050919050565b6000612e52602083613369565b9150612e5d82613a83565b602082019050919050565b6000612e75602983613369565b9150612e8082613aac565b604082019050919050565b6000612e98602f83613369565b9150612ea382613afb565b604082019050919050565b6000612ebb602183613369565b9150612ec682613b4a565b604082019050919050565b6000612ede603183613369565b9150612ee982613b99565b604082019050919050565b6000612f01602c83613369565b9150612f0c82613be8565b604082019050919050565b6000612f24603083613369565b9150612f2f82613c37565b604082019050919050565b612f43816134aa565b82525050565b6000612f558285612c07565b9150612f618284612c07565b91508190509392505050565b6000602082019050612f826000830184612b77565b92915050565b6000608082019050612f9d6000830187612b77565b612faa6020830186612b77565b612fb76040830185612f3a565b8181036060830152612fc98184612b95565b905095945050505050565b6000602082019050612fe96000830184612b86565b92915050565b600060208201905081810360008301526130098184612bce565b905092915050565b6000602082019050818103600083015261302a81612c38565b9050919050565b6000602082019050818103600083015261304a81612c5b565b9050919050565b6000602082019050818103600083015261306a81612c7e565b9050919050565b6000602082019050818103600083015261308a81612ca1565b9050919050565b600060208201905081810360008301526130aa81612cc4565b9050919050565b600060208201905081810360008301526130ca81612ce7565b9050919050565b600060208201905081810360008301526130ea81612d0a565b9050919050565b6000602082019050818103600083015261310a81612d2d565b9050919050565b6000602082019050818103600083015261312a81612d50565b9050919050565b6000602082019050818103600083015261314a81612d73565b9050919050565b6000602082019050818103600083015261316a81612d96565b9050919050565b6000602082019050818103600083015261318a81612db9565b9050919050565b600060208201905081810360008301526131aa81612ddc565b9050919050565b600060208201905081810360008301526131ca81612dff565b9050919050565b600060208201905081810360008301526131ea81612e22565b9050919050565b6000602082019050818103600083015261320a81612e45565b9050919050565b6000602082019050818103600083015261322a81612e68565b9050919050565b6000602082019050818103600083015261324a81612e8b565b9050919050565b6000602082019050818103600083015261326a81612eae565b9050919050565b6000602082019050818103600083015261328a81612ed1565b9050919050565b600060208201905081810360008301526132aa81612ef4565b9050919050565b600060208201905081810360008301526132ca81612f17565b9050919050565b60006020820190506132e66000830184612f3a565b92915050565b60006132f6613307565b90506133028282613528565b919050565b6000604051905090565b600067ffffffffffffffff82111561332c5761332b613660565b5b6133358261368f565b9050602081019050919050565b600081519050919050565b600081519050919050565b600082825260208201905092915050565b600082825260208201905092915050565b600081905092915050565b6000613390826134aa565b915061339b836134aa565b9250827fffffffffffffffffffffffffffffffffffffffffffffffffffffffffffffffff038211156133d0576133cf6135d3565b5b828201905092915050565b60006133e6826134aa565b91506133f1836134aa565b92508261340157613400613602565b5b828204905092915050565b6000613417826134aa565b9150613422836134aa565b925082821015613435576134346135d3565b5b828203905092915050565b600061344b8261348a565b9050919050565b60008115159050919050565b60007fffffffff0000000000000000000000000000000000000000000000000000000082169050919050565b600073ffffffffffffffffffffffffffffffffffffffff82169050919050565b6000819050919050565b82818337600083830152505050565b60005b838110156134e15780820151818401526020810190506134c6565b838111156134f0576000848401525b50505050565b6000600282049050600182168061350e57607f821691505b6020821081141561352257613521613631565b5b50919050565b6135318261368f565b810181811067ffffffffffffffff821117156135505761354f613660565b5b80604052505050565b6000613564826134aa565b91507fffffffffffffffffffffffffffffffffffffffffffffffffffffffffffffffff821415613597576135966135d3565b5b600182019050919050565b60006135ad826134aa565b91506135b8836134aa565b9250826135c8576135c7613602565b5b828206905092915050565b7f4e487b7100000000000000000000000000000000000000000000000000000000600052601160045260246000fd5b7f4e487b7100000000000000000000000000000000000000000000000000000000600052601260045260246000fd5b7f4e487b7100000000000000000000000000000000000000000000000000000000600052602260045260246000fd5b7f4e487b7100000000000000000000000000000000000000000000000000000000600052604160045260246000fd5b6000601f19601f8301169050919050565b7f5061757361626c653a206e6f7420706175736564000000000000000000000000600082015250565b7f455243373231456e756d657261626c653a206f776e657220696e646578206f7560008201527f74206f6620626f756e6473000000000000000000000000000000000000000000602082015250565b7f4552433732313a207472616e7366657220746f206e6f6e20455243373231526560008201527f63656976657220696d706c656d656e7465720000000000000000000000000000602082015250565b7f4f776e61626c653a206e6577206f776e657220697320746865207a65726f206160008201527f6464726573730000000000000000000000000000000000000000000000000000602082015250565b7f4552433732313a20746f6b656e20616c7265616479206d696e74656400000000600082015250565b7f4552433732313a207472616e7366657220746f20746865207a65726f2061646460008201527f7265737300000000000000000000000000000000000000000000000000000000602082015250565b7f4552433732313a20617070726f766520746f2063616c6c657200000000000000600082015250565b7f4552433732313a206f70657261746f7220717565727920666f72206e6f6e657860008201527f697374656e7420746f6b656e0000000000000000000000000000000000000000602082015250565b7f5061757361626c653a2070617573656400000000000000000000000000000000600082015250565b7f4552433732313a20617070726f76652063616c6c6572206973206e6f74206f7760008201527f6e6572206e6f7220617070726f76656420666f7220616c6c0000000000000000602082015250565b7f4552433732313a2062616c616e636520717565727920666f7220746865207a6560008201527f726f206164647265737300000000000000000000000000000000000000000000602082015250565b7f4552433732313a206f776e657220717565727920666f72206e6f6e657869737460008201527f656e7420746f6b656e0000000000000000000000000000000000000000000000602082015250565b7f4552433732313a206d696e7420746f20746865207a65726f2061646472657373600082015250565b7f45524337323155524953746f726167653a2055524920717565727920666f722060008201527f6e6f6e6578697374656e7420746f6b656e000000000000000000000000000000602082015250565b7f4552433732313a20617070726f76656420717565727920666f72206e6f6e657860008201527f697374656e7420746f6b656e0000000000000000000000000000000000000000602082015250565b7f4f776e61626c653a2063616c6c6572206973206e6f7420746865206f776e6572600082015250565b7f4552433732313a207472616e73666572206f6620746f6b656e2074686174206960008201527f73206e6f74206f776e0000000000000000000000000000000000000000000000602082015250565b7f4552433732314d657461646174613a2055524920717565727920666f72206e6f60008201527f6e6578697374656e7420746f6b656e0000000000000000000000000000000000602082015250565b7f4552433732313a20617070726f76616c20746f2063757272656e74206f776e6560008201527f7200000000000000000000000000000000000000000000000000000000000000602082015250565b7f4552433732313a207472616e736665722063616c6c6572206973206e6f74206f60008201527f776e6572206e6f7220617070726f766564000000000000000000000000000000602082015250565b7f455243373231456e756d657261626c653a20676c6f62616c20696e646578206f60008201527f7574206f6620626f756e64730000000000000000000000000000000000000000602082015250565b7f4552433732314275726e61626c653a2063616c6c6572206973206e6f74206f7760008201527f6e6572206e6f7220617070726f76656400000000000000000000000000000000602082015250565b613c8f81613440565b8114613c9a57600080fd5b50565b613ca681613452565b8114613cb157600080fd5b50565b613cbd8161345e565b8114613cc857600080fd5b50565b613cd4816134aa565b8114613cdf57600080fd5b5056fea2646970667358221220a7ac0d20d5a47bad1a42e5937537072e7931432ad9c2d4c923e24189a504930e64736f6c63430008040033",
  "immutableReferences": {},
  "source": "// SPDX-License-Identifier: MIT\npragma solidity ^0.8.0;\n\nimport \"@openzeppelin/contracts/token/ERC721/ERC721.sol\";\nimport \"@openzeppelin/contracts/token/ERC721/extensions/ERC721Enumerable.sol\";\nimport \"@openzeppelin/contracts/token/ERC721/extensions/ERC721URIStorage.sol\";\nimport \"@openzeppelin/contracts/security/Pausable.sol\";\nimport \"@openzeppelin/contracts/access/Ownable.sol\";\nimport \"@openzeppelin/contracts/token/ERC721/extensions/ERC721Burnable.sol\";\nimport \"@openzeppelin/contracts/utils/Counters.sol\";\n\ncontract UniqueNFT is ERC721, ERC721Enumerable, ERC721URIStorage, Pausable, Ownable, ERC721Burnable {\n    using Counters for Counters.Counter;\n\n    Counters.Counter private _tokenIdCounter;\n\n    constructor() ERC721(\"UniqueNFT\", \"UNFT\") {}\n\n    function safeMint(address to) public onlyOwner {\n        _safeMint(to, _tokenIdCounter.current());\n        _tokenIdCounter.increment();\n    }\n\n    function pause() public onlyOwner {\n        _pause();\n    }\n\n    function unpause() public onlyOwner {\n        _unpause();\n    }\n\n    function _beforeTokenTransfer(address from, address to, uint256 tokenId)\n        internal\n        whenNotPaused\n        override(ERC721, ERC721Enumerable)\n    {\n        super._beforeTokenTransfer(from, to, tokenId);\n    }\n\n    function _burn(uint256 tokenId) internal override(ERC721, ERC721URIStorage) {\n        super._burn(tokenId);\n    }\n\n    function tokenURI(uint256 tokenId)\n        public\n        view\n        override(ERC721, ERC721URIStorage)\n        returns (string memory)\n    {\n        return super.tokenURI(tokenId);\n    }\n\n    function supportsInterface(bytes4 interfaceId)\n        public\n        view\n        override(ERC721, ERC721Enumerable)\n        returns (bool)\n    {\n        return super.supportsInterface(interfaceId);\n    }\n}\n",
  "sourcePath": "/Users/rmcmahan/blockchain/ipfs-drive/contracts/UniqueNFT.sol",
  "compiler": {
    "name": "solc",
    "version": "0.8.4+commit.c7e474f2.Emscripten.clang"
  },
  "schemaVersion": "3.4.1",
  "updatedAt": "2021-06-02T22:54:36.830Z",
  "devdoc": {
    "kind": "dev",
    "methods": {
      "approve(address,uint256)": {
        "details": "See {IERC721-approve}."
      },
      "balanceOf(address)": {
        "details": "See {IERC721-balanceOf}."
      },
      "burn(uint256)": {
        "details": "Burns `tokenId`. See {ERC721-_burn}. Requirements: - The caller must own `tokenId` or be an approved operator."
      },
      "getApproved(uint256)": {
        "details": "See {IERC721-getApproved}."
      },
      "isApprovedForAll(address,address)": {
        "details": "See {IERC721-isApprovedForAll}."
      },
      "name()": {
        "details": "See {IERC721Metadata-name}."
      },
      "owner()": {
        "details": "Returns the address of the current owner."
      },
      "ownerOf(uint256)": {
        "details": "See {IERC721-ownerOf}."
      },
      "paused()": {
        "details": "Returns true if the contract is paused, and false otherwise."
      },
      "renounceOwnership()": {
        "details": "Leaves the contract without owner. It will not be possible to call `onlyOwner` functions anymore. Can only be called by the current owner. NOTE: Renouncing ownership will leave the contract without an owner, thereby removing any functionality that is only available to the owner."
      },
      "safeTransferFrom(address,address,uint256)": {
        "details": "See {IERC721-safeTransferFrom}."
      },
      "safeTransferFrom(address,address,uint256,bytes)": {
        "details": "See {IERC721-safeTransferFrom}."
      },
      "setApprovalForAll(address,bool)": {
        "details": "See {IERC721-setApprovalForAll}."
      },
      "symbol()": {
        "details": "See {IERC721Metadata-symbol}."
      },
      "tokenByIndex(uint256)": {
        "details": "See {IERC721Enumerable-tokenByIndex}."
      },
      "tokenOfOwnerByIndex(address,uint256)": {
        "details": "See {IERC721Enumerable-tokenOfOwnerByIndex}."
      },
      "totalSupply()": {
        "details": "See {IERC721Enumerable-totalSupply}."
      },
      "transferFrom(address,address,uint256)": {
        "details": "See {IERC721-transferFrom}."
      },
      "transferOwnership(address)": {
        "details": "Transfers ownership of the contract to a new account (`newOwner`). Can only be called by the current owner."
      }
    },
    "version": 1
  },
  "userdoc": {
    "kind": "user",
    "methods": {},
    "version": 1
  }
}